:100000000C942A000C9485030C9447000C94470030
:100010000C9447000C9447000C9499040C947204BF
:100020000C9447000C944D040C94FE030C94AC0308
:100030000C9447000C9447000C9447000C94470024
:100040000C9447000C9447000C9447000C94470014
:100050000C94470011241FBECFE5D8E0DEBFCDBF12
:1000600010E0A0E6B0E0E6ECFDE002C005900D92E5
:10007000AC3AB107D9F720E0ACEAB0E001C01D927C
:10008000A93DB207E1F70E9449000C94E1060C94E7
:1000900000000E9487000E9495000E949A00FBCFFA
:1000A00060E080E00E94490280E790E00E949C01AD
:1000B00060E081E00E94490281E890E00E949C019A
:1000C0002FEF8DE399E4215080409040E1F700C08C
:1000D00000000E94640260E080E00E94490289E81A
:1000E00090E00E949C0160E081E00E94490282E968
:1000F00090E00E949C012FEF8DE399E42150804015
:100100009040E1F700C000000E94640208950E9440
:10011000F30481E00E9479030E9417030E942A03DE
:100120000E9422010E94500008950E946E020E94C7
:100130007D020895CF92DF92EF92FF926B017C01D6
:1001400060E080E00E9449028DE990E00E949C01FD
:1001500060E081E00E944902C701B6010E94B80137
:1001600088EA90E00E949C012FEF89E698E12150F7
:1001700080409040E1F700C000000E946402FF90C0
:10018000EF90DF90CF900895CF93C82F60E081E08B
:100190000E94900260E082E00E949002C4FB662709
:1001A00060F983E00E949002C5FB662760F984E055
:1001B0000E949002C6FB662760F985E00E949002CB
:1001C0006C2F661F6627661F86E00E94900261E022
:1001D00082E00E9490028FE99FE00197F1F700C052
:1001E000000060E082E00E9490026C2F617083E06A
:1001F0000E949002C1FB662760F984E00E94900291
:10020000C2FB662760F985E00E949002C3FB662767
:1002100060F986E00E94900261E082E00E94900214
:100220008FE99FE00197F1F700C0000060E082E0F5
:100230000E9490028FE19EE40197F1F700C0000058
:10024000CF91089583E30E94C40082E30E94C4001A
:1002500088E20E94C40081E00E94C40086E00E94FF
:10026000C4008CE00E94C40082E00E94C4008FE1C0
:100270009EE40197F1F700C000000895CF93C82FC6
:1002800061E081E00E94900260E082E00E949002C2
:10029000C4FB662760F983E00E949002C5FB6627D5
:1002A00060F984E00E949002C6FB662760F985E051
:1002B0000E9490026C2F661F6627661F86E00E94D0
:1002C000900261E082E00E9490028FE99FE0019736
:1002D000F1F700C0000060E082E00E9490026C2F05
:1002E000617083E00E949002C1FB662760F984E0A0
:1002F0000E949002C2FB662760F985E00E9490028E
:10030000C3FB662760F986E00E94900261E082E00C
:100310000E9490028FE99FE00197F1F700C0000072
:1003200060E082E00E9490028FE19EE40197F1F785
:1003300000C00000CF9108950F931F93CF93FC014D
:100340008081882359F08F01C0E00E943E01CF5F79
:10035000F801EC0FF11D80818111F7CF8FE19EE450
:100360000197F1F700C00000CF911F910F91089500
:100370004F925F926F927F928F929F92AF92BF92B5
:10038000CF92DF92EF92FF926B017C0161157105B4
:100390008105910551F480E30E943E0167C01C1461
:1003A0001D041E041F047CF061C09923C4F78DE274
:1003B0000E943E01F094E094D094C094C11CD11CE2
:1003C000E11CF11CECCF61E070E080E090E00F2ECA
:1003D000FAE08F2E912CA12CB12CF02DDC01CB0159
:1003E000880F991FAA1FBB1F2C013D01440C551CEF
:1003F000661C771C440C551C661C771C480E591E45
:100400006A1E7B1EC701B601A50194010E94A006C9
:10041000640D751D861D971DC22ED32EE42EF52E5C
:100420001C141D041E041F04CCF2623071058105EA
:100430009105E4F00F2EFAE08F2E912CA12CB12C17
:10044000F02DA50194010E94A006C22ED32EE42E09
:10045000F52E80E3860F0E943E016C2D7D2D8E2DA2
:100460009F2D62307105810591055CF78FE19EE457
:100470000197F1F700C00000FF90EF90DF90CF9060
:10048000BF90AF909F908F907F906F905F904F90B4
:100490000895CF93DF9300D0CDB7DEB790E899836E
:1004A00090EC9A83FE01E80FF11D8181860F0E9476
:1004B000C4008FE19EE40197F1F700C000000F90A7
:1004C0000F90DF91CF91089581E00E94C4008FE1E9
:1004D0009EE40197F1F700C00000089561E08CE10F
:1004E0000E94900287EC90E00197F1F700C00000B5
:1004F00060E08CE10E94900208950E9433030E9404
:10050000A50526E933E44BE05DE30E940B0620E0FD
:1005100030E040E05FE30E940B060E9476050895FC
:10052000982F9695969596958770662309F43FC007
:10053000613009F07BC0913099F028F09230E9F0F9
:10054000933041F108954BB321E030E0B90102C08E
:10055000660F771F8A95E2F7CB01842B8BBB08953A
:1005600048B321E030E0B90102C0660F771F8A95D9
:10057000E2F7CB01842B88BB089545B321E030E03E
:10058000B90102C0660F771F8A95E2F7CB01842B71
:1005900085BB089542B321E030E0B90102C0660F87
:1005A000771F8A95E2F7CB01842B82BB08959130A7
:1005B000A1F028F09230F9F0933059F108954BB33F
:1005C00021E030E0B90102C0660F771F8A95E2F79B
:1005D000CB01809584238BBB089548B321E030E0A4
:1005E000B90102C0660F771F8A95E2F7CB018095AB
:1005F000842388BB089545B321E030E0B90102C0EF
:10060000660F771F8A95E2F7CB018095842385BB1F
:10061000089542B321E030E0B90102C0660F771FB0
:100620008A95E2F7CB018095842382BB08958FB52C
:100630008E7F8FBD8FB58D7F8FBD8EB5877F8EBD31
:100640008EB58F7E8EBD89B7846089BF8EB585607B
:100650008EBD089517BC16BC8EB580648EBD89B75B
:10066000806289BF08958091B0008230C9F5809181
:10067000B1009091B200A091B300B091B40040914C
:10068000B5005091B6006091B7007091B800841B1E
:10069000950BA60BB70B880F991FAA1FBB1F880FBE
:1006A000991FAA1FBB1F880F991FAA1FBB1F880F66
:1006B000991FAA1FBB1F880F991FAA1FBB1F880F56
:1006C000991FAA1FBB1F8093AC009093AD00A0930D
:1006D000AE00B093AF001092B00089B7806289BFBE
:1006E0006091AC007091AD008091AE009091AF0030
:1006F0000895882331F0813039F48FB780688FBF37
:1007000008958FB78F778FBF08951F920F920FB6FE
:100710000F9211242F933F934F935F936F937F9387
:100720008F939F93AF93BF93EF93FF93E091C30099
:10073000F091C4000995FF91EF91BF91AF919F9106
:100740008F917F916F915F914F913F912F910F907A
:100750000FBE0F901F9018951F920F920FB60F9219
:1007600011242F933F934F935F936F937F938F93B6
:100770009F93AF93BF93EF93FF938091BD009091B0
:10078000BE00A091BF00B091C0000196A11DB11D97
:100790008093BD009093BE00A093BF00B093C000B3
:1007A0004091C9005091CA006091CB007091CC007B
:1007B00084179507A607B70781F4E091C100F0916F
:1007C000C20009951092BD001092BE001092BF00A9
:1007D0001092C0008091D10082BFFF91EF91BF9134
:1007E000AF919F918F917F916F915F914F913F91C9
:1007F0002F910F900FBE0F901F9018951F920F9280
:100800000FB60F9211242F933F934F935F936F93E3
:100810007F938F939F93AF93BF93EF93FF938091B9
:10082000B9009091BA00A091BB00B091BC000196B4
:10083000A11DB11D8093B9009093BA00A093BB0095
:10084000B093BC004091C5005091C6006091C700B4
:100850007091C80084179507A607B70769F4E0915F
:10086000C100F091C20009951092B9001092BA002F
:100870001092BB001092BC00FF91EF91BF91AF911D
:100880009F918F917F916F915F914F913F912F91A8
:100890000F900FBE0F901F9018951F920F920FB6DA
:1008A0000F9211248F939F93AF93BF938091CD00AC
:1008B0009091CE00A091CF00B091D0000196A11DE3
:1008C000B11D8093CD009093CE00A093CF00B09344
:1008D000D000BF91AF919F918F910F900FBE0F905D
:1008E0001F9018951F920F920FB60F9211242F93FD
:1008F0003F934F935F936F937F938F939F93AF93A8
:10090000BF93EF93FF93E091C100F091C20009956E
:10091000FF91EF91BF91AF919F918F917F916F91D7
:100920005F914F913F912F910F900FBE0F901F90AD
:1009300018951F920F920FB60F9211242F933F9389
:100940008F939F93AF93BF938091B0008F5F8093FD
:10095000B0008091B0008130C1F486B597B5A0E0B9
:10096000B0E08093B5009093B600A093B700B09329
:10097000B8001092CD001092CE001092CF001092CD
:10098000D0008EB58F7B8EBD23C08091B0008230A9
:10099000F9F426B537B58091CD009091CE00A091A5
:1009A000CF00B091D000DC0199278827820F931FD8
:1009B000A11DB11D8093B1009093B200A093B3002C
:1009C000B093B4008EB580648EBD89B78F7D89BF2A
:1009D000BF91AF919F918F913F912F910F900FBE3B
:1009E0000F901F901895E0E6F0E040E750E061E0DE
:1009F00070E08081982F96959695969587702181C5
:100A0000222319F02130C9F16BC0913091F028F008
:100A10009230D9F0933029F163C09AB39B0102C0A0
:100A2000220F331F8A95E2F7822F809589238ABB94
:100A300057C097B39B0102C0220F331F8A95E2F77C
:100A4000822F8095892387BB4BC094B39B0102C042
:100A5000220F331F8A95E2F7822F8095892384BB6A
:100A60003FC091B39B0102C0220F331F8A95E2F76A
:100A7000822F8095892381BB33C0913089F028F083
:100A80009230C9F0933011F12BC02AB3DB0102C0C0
:100A9000AA0FBB1F8A95E2F7CD01822B8ABB20C02B
:100AA00027B3DB0102C0AA0FBB1F8A95E2F7CD0175
:100AB000822B87BB15C024B3DB0102C0AA0FBB1F6A
:100AC0008A95E2F7CD01822B84BB0AC021B3DB01FA
:100AD00002C0AA0FBB1F8A95E2F7CD01822B81BB12
:100AE0003296E417F50709F084CF08950E94EA05CD
:100AF00088F09F5798F0B92F9927B751B0F0E1F0DF
:100B0000660F771F881F991F1AF0BA95C9F714C08E
:100B1000B13091F00E940406B1E008950C940406EF
:100B2000672F782F8827B85F39F0B93FCCF38695C7
:100B300077956795B395D9F73EF490958095709524
:100B400061957F4F8F4F9F4F0895E89409C097FBA1
:100B50003EF490958095709561957F4F8F4F9F4F94
:100B60009923A9F0F92F96E9BB279395F6958795D8
:100B700077956795B795F111F8CFFAF4BB0F11F49B
:100B800060FF1BC06F5F7F4F8F4F9F4F16C0882342
:100B900011F096E911C0772321F09EE8872F762F78
:100BA00005C0662371F096E8862F70E060E02AF0B9
:100BB0009A95660F771F881FDAF7880F96958795A5
:100BC00097F9089557FD9058440F551F59F05F3F0E
:100BD00071F04795880F97FB991F61F09F3F79F05F
:100BE00087950895121613061406551FF2CF4695E1
:100BF000F1DF08C0161617061806991FF1CF869563
:100C00007105610508940895E894BB276627772746
:100C1000CB0197F908950E941E060C948F060E943E
:100C2000810638F00E94880620F0952311F00C947C
:100C300078060C947E0611240C9405060E94E205A9
:100C400070F3959FC1F3950F50E0551F629FF0011F
:100C5000729FBB27F00DB11D639FAA27F00DB11D38
:100C6000AA1F649F6627B00DA11D661F829F2227C1
:100C7000B00DA11D621F739FB00DA11D621F839F48
:100C8000A00D611D221F749F3327A00D611D231F1E
:100C9000849F600D211D822F762F6A2F11249F576C
:100CA00050409AF0F1F088234AF0EE0FFF1FBB1F6F
:100CB000661F771F881F91505040A9F79E3F51052E
:100CC00080F00C9478060C9405065F3FE4F3983EA0
:100CD000D4F3869577956795B795F795E7959F5FD8
:100CE000C1F7FE2B880F911D9695879597F908956A
:100CF00097F99F6780E870E060E008959FEF80ECCF
:100D0000089500240A941616170618060906089571
:100D100000240A9412161306140605060895092ED7
:100D20000394000C11F4882352F0BB0F40F4BF2B46
:100D300011F460FF04C06F5F7F4F8F4F9F4F089586
:100D4000052E97FB1EF400940E94B70657FD07D0AE
:100D50000E94BF0607FC03D04EF40C94B7065095D2
:100D60004095309521953F4F4F4F5F4F0895909597
:100D70008095709561957F4F8F4F9F4F0895A1E2A9
:100D80001A2EAA1BBB1BFD010DC0AA1FBB1FEE1F05
:100D9000FF1FA217B307E407F50720F0A21BB30B50
:100DA000E40BF50B661F771F881F991F1A9469F7CC
:100DB00060957095809590959B01AC01BD01CF0128
:060DC0000895F894FFCF36
:100DC6000101020103010401050106011C011E00C7
:100DD60044697374616E6365204D656173757265F0
:100DE6000050726F6A656374004D616465204279D4
:100DF6003A00416C69204D616D646F680044697307
:0C0E060074616E6365203D00636D0000A8
:00000001FF
